:1000000002EF06F00000000000EF00F0000000002A
:0A0010000000000000000000F3D71C
:10001C0098C0E9FF99C0EAFF010EEE1400019E6F33
:10002C00EECF9FF0EECFA0F0EECFA1F0000E9F1719
:10003C00A017A11798C0E9FF99C0EAFFEECF05F011
:10004C00EECF06F0EECF07F0EECF08F005C000F0D3
:10005C0006C001F007C002F008C003F00332023200
:10006C0001320032039E98C0E1FF99C0E2FF00C04C
:10007C00E6FF01C0E6FF02C0E6FF03C0E6FF000E8C
:10008C00006EA11908E10050A01905E100509F195C
:10009C0002E19E51010A10E198C0E9FF99C0EAFF04
:1000AC0098C0E1FF99C0E2FF9A51E61A9B51E61AFB
:1000BC009C51E61A9D51E61A98C0E9FF99C0EAFFD7
:1000CC00EECF00F0EECF01F0EECF02F0EECF03F06A
:0200DC00120010
:1000DE0098C051F099C052F0000E536E546E010E3E
:0400EE00506E12003E
:1000F200220E0C6E086A096A0A6A0B6A0C06D8B4E8
:100102001FD0D8900B320A3209320832033202323F
:1001120001320032D8A0F2D70C06D8B409D004506C
:1001220008260550092206500A2207500B22EAD758
:10013200045008260550092206500A2207500B22B5
:020142001200A9
:100144000F0E0C6E470E0D6E0D2EFED70C2EFCD727
:0601540000000000120093
:0A015A00210E0D6E0D2EFED71200CF
:0601640000000000120083
:10016A00505206E1010E0001986F000E996FB2DF3E
:10017A0051C000F052C001F053C002F054C003F065
:10018A006D0E046E4E0E056EC60E066E410E076E9D
:10019A00ABDF390E0024056E300E0120066E000E0C
:1001AA000220076E000E0320086E07C000F008C088
:1001BA0001F0000E08BEFF0E026E036EFF0E00165F
:1001CA007F0E0116000E0216031600C051F001C080
:0C01DA0052F002C053F003C054F01200B9
:1001E6000B0E046E37C000F038C001F039C002F0C3
:1001F6003AC003F0045007E000360090013602369C
:100206000336FF0FF8D7005037180001946F0150DE
:100216003818956F02503918966F03503A18976F31
:100226003BC037F03CC038F03DC039F03EC03AF034
:100236003FC03BF040C03CF041C03DF042C03EF004
:1002460043C03FF044C040F045C041F046C042F0D4
:10025600130E046E43C000F044C001F045C002F026
:1002660046C003F0045007E0033202320132003286
:10027600039EFF0FF8D7000100504318056E01508A
:100286004418066E02504518076E03504618086E4D
:1002960095C000F096C001F097C002F0036A945131
:1002A600001A9551011A9651021A9751031A0550D0
:1002B600001A0650011A0750021A0850031A00C005
:1002C60043F001C044F002C045F003C046F043C00D
:1002D60000F044C001F045C002F046C003F0120031
:1002E600000194BF02D0839E01D0838E94BD02D0BC
:1002F600839C01D0838C94BB02D0839A01D0838ADD
:1003060094B902D0839801D0838855B002D08484F2
:1003160001D08494848223DF849294B702D0839E92
:1003260001D0838E94B502D0839C01D0838C94B384
:1003360002D0839A01D0838A94B102D0839801D0E7
:10034600838855B002D0848401D08494848207DFE8
:0E035600849255A002D0F3DE01D0FCDE12002E
:10036400086A096A100E0C6E013408360936045006
:10037400085E0550D8A0053C095ED8B007D00450EB
:1003840008260550D8B0053C0926D8900036013619
:060394000C2EEAD7120056
:10039A00480E0001986F000E996F5C0E9A6FD30E8B
:1003AA009B6FBC0E9C6FB40E9D6F33DE480E986F28
:1003BA00000E996F5C0E9A6FD30E9B6FBC0E9C6FEA
:1003CA00B40E9D6F26DE00C094F001C095F002C005
:1003DA0096F003C097F04C0E986F000E996FE30EDB
:1003EA009A6FC20E9B6F5B0E9C6F7A0E9D6F11DE29
:1003FA009451001A9551011A9651021A9751031AEB
:10040A00FF0E0016FF0E0116000E0216031612004A
:10041A00800E4714016E070E006E01C003F00050F3
:10042A0004E00332039EFF0FFBD7200E4714026E2F
:10043A00050E016E02C000F0015004E00032009E79
:10044A00FF0FFBD700500318046E100E4714016EFD
:10045A0001C003F00332039E0332039E0332039E5C
:10046A000332039E080E4714026E02C000F00032E7
:10047A00009E0032009E0032009E0350001A045073
:10048A00001A010E0018026E47C000F000360090F4
:0C049A0000500210476E47C000F0120036
:1004A600DE0E486EBC0E496E0A0E4A6E000E4B6E8C
:1004B600890E4C6E670E4D6E450E4E6E230E4F6EB8
:0204C600120022
:1004C800370E0001986F130E996F05DE4ADE49DE7C
:1004D80000C037F001C038F0000E01BEFF0E396EC3
:1004E8003A6E3FDE00C03BF001C03CF0000E01BE9A
:1004F800FF0E3D6E3E6E35DE00C03FF001C040F09D
:10050800000E01BEFF0E416E426E2BDE00C043F0AE
:1005180001C044F0000E01BEFF0E456E466E156A1E
:10052800166A800E1618006E800E005C02E1140E2A
:10053800155C22E216DE00C08CF001C08DF0170EAB
:100548001524036E000E1620046E8DC000F0000EF8
:1005580000018DBFFF0E016E03C0E9FF04C0EAFF72
:10056800EE500018006E03C0E1FF04C0E2FF00C0B7
:0A057800E6FF154A162AD5D7120037
:100582000001906B050E905D0AE290518E25E16E9E
:10059200000E8F21E26E200EE66E902BF3D7905163
:1005A2008E25E16E000E8F21E26EE66A9007905171
:1005B2008E25916F000E8F21926F0A0E046E000E2F
:1005C200056E8CC000F08DC001F0CBDE08C000F0DB
:1005D20009C001F0300E002691C0E1FF92C0E2FF97
:1005E20000C0E6FF0A0E046E000E056E8CC000F01D
:1005F2008DC001F0B6DE00C08CF001C08DF0000E9F
:10060200011802E1000E001801E102D09007CFD7D5
:020612001200D4
:0C06140055908CC094F065DE55801200FB
:10062000370E0001986F130E996F59DD9EDD9DDD29
:1006300000C037F001C038F0000E01BEFF0E396E69
:100640003A6E93DD00C03BF001C03CF0000E01BEED
:10065000FF0E3D6E3E6E89DD00C03FF001C040F0F0
:10066000000E01BEFF0E416E426E7FDD00C043F002
:1006700001C044F0000E01BEFF0E456E466E156AC5
:10068000166A800E1618006E800E005C02E1140ED1
:10069000155C08E26ADD00C08CF001C08DF0154ADF
:1006A000162AEFD7156A166A800E1618006E800E8D
:1006B000005C02E1140E155C08E295DD00C08EF0CE
:1006C00001C08FF0154A162AEFD78DDDFF0E0014FA
:1006D000476EA3DEA2DE156A166A800E1618006E3B
:1006E000800E005C02E1140E155C1EE296DE00C076
:1006F00090F0000E0001916F170E1524016E000E90
:100700001620026EFF0E9015006E01C0E9FF02C0B8
:10071000EAFFEE50001A01C0E1FF02C0E2FF00C094
:0A072000E6FF154A162AD9D7120089
:10072A00370E0001986F130E996FD4DC19DD18DDAE
:10073A0000C037F001C038F0000E01BEFF0E396E5E
:10074A003A6E0EDD00C03BF001C03CF0000E01BE67
:10075A00FF0E3D6E3E6E04DD00C03FF001C040F06A
:10076A00000E01BEFF0E416E426EFADC00C043F07D
:10077A0001C044F0000E01BEFF0E456E466E156ABA
:10078A00166A800E1618006E800E005C02E1140EC6
:10079A00155C08E2E5DC00C08CF001C08DF0154A5A
:1007AA00162AEFD7156A166A800E1618006E800E82
:1007BA00005C02E1140E155C08E210DD00C08EF048
:1007CA0001C08FF0154A162AEFD708DDFF0E001474
:1007DA00476E1EDE1DDE156A166A800E1618006E3A
:1007EA00800E005C02E1140E155C09E211DE00C005
:1007FA0090F0000E0001916F154A162AEED74EDED0
:10080A00EDDC0050481A0150491A02504A1A0350A6
:10081A004B1AE4DC00504C1A01504D1A02504E1A81
:10082A0003504F1A156A166A800E1618006E800E4B
:10083A00005C02E1140E155C1DE2AADD00C092F014
:10084A0001C093F0170E1524016E000E1620026ED9
:10085A00FF0E9215006E01C0E9FF02C0EAFFEE50DA
:10086A00001A01C0E1FF02C0E2FF00C0E6FF154A1C
:06087A00162ADAD7120075
:0C0880000E0E0D6E0D2EFED700001200B3
:10088C00370E0001986F130E996F23DC68DC67DC60
:10089C0000C037F001C038F0000E01BEFF0E396EFB
:1008AC003A6E5DDC00C03BF001C03CF0000E01BEB6
:1008BC00FF0E3D6E3E6E53DC00C03FF001C040F0B9
:1008CC00000E01BEFF0E416E426E49DC00C043F0CB
:1008DC0001C044F0000E01BEFF0E456E466E156A57
:1008EC00166A800E1618006E800E005C02E1140E63
:1008FC00155C08E234DC00C08CF001C08DF0154AA8
:10090C00162AEFD7156A166A800E1618006E800E1E
:10091C00005C02E1140E155C1DE25FDC00C08EF081
:10092C0001C08FF0170E1524016E000E1620026EFA
:10093C00FF0E8E15006E01C0E9FF02C0EAFFEE50FB
:10094C00001A01C0E1FF02C0E2FF00C0E6FF154A39
:06095C00162ADAD7120092
:100962000001886B896B82C08AF083C08BF0800E95
:100972008319006E800E005C02E1000E825D0BE2C4
:10098200010E886F000E896F825100088A6F83C042
:100992008BF0000E8B578AC08CF08BC08DF084C018
:1009A2008EF085C08FF0ECDD060E866F000E876F2D
:1009B200000E006E8751005C02E18651000819E2C8
:1009C20086518425E16E87518521E26E010E865D96
:1009D200006E000E8759016E00508425E96E0150A9
:1009E2008521EA6EEECFE6FF010E865F000E875B81
:1009F200DFD784C0E1FF85C0E2FF200EE66E88519A
:100A020089111AE0866B876B86518425E96E8751BE
:100A12008521EA6EEE50200A03E1864B872BF4D73C
:100A2200010E865F000E875B86518425E16E875139
:0A0A32008521E26E2D0EE66E120023
:100A3C000900F5CFE6FF0006FBE10106F9E1120023
:100A4C00969296949598959A959C959E849284945A
:100A5C00839E839C839A8398A2EC00F0A2EC00F016
:100A6C00A2EC00F0838A83888482B2EC00F084923A
:100A7C00A2EC00F08482B2EC00F08492A2EC00F0C4
:100A8C008482B2EC00F08492A2EC00F08398848211
:100A9C00B2EC00F08492A2EC00F08482B2EC00F094
:100AAC008492839A838E8482B2EC00F08492A2ECBE
:100ABC0000F0839E83888482B2EC00F08492839849
:100ACC008482B2EC00F08492A2EC00F08482B2EC4E
:100ADC0000F0849283888482B2EC00F08492A2ECC1
:100AEC0000F083988482B2EC00F08492838E838C25
:100AFC00838A83888482B2EC00F08492A2EC00F0AA
:040B0C0055801200FE
:100B1000C26AC00EC2122C1C006E0050C116C18CDD
:100B2000C18E82C000F00036009000360090003682
:100B300000900050C212C280A3DEC284C2A401D0C1
:100B4000FDD7C4CF01F0006AC3500012000E01129D
:040B5000C29012003D
:0A0B5400EADD64DD99DEB6DC120074
:100B5E0010D0800E0001826F1AD0C00E826F17D097
:100B6E00940E826F14D0D40E826F11D0800E826FCD
:100B7E000ED000018251010AECE08251020AEDE032
:100B8E008251030AEDE08251040AEDE0EFD78305AE
:100B9E00006E8251002600C082F000C094F073EC0B
:100BAE0001F05590866B86518425E96E000E8521E5
:100BBE00EA6EEE520BE086518425E96E000E852119
:100BCE00EA6EEECF8CF01FDD862BEDD7558012002E
:100BDE00FF0E566EFF0E576EFF0E586EFF0E596EBD
:100BEE00C26AC00EC2122C1C006E0050C116C18CFF
:060BFE00C18EC28012004E
:100C0400EBEC06F0370E0001986F130E996F6FEC42
:100C140000F0B5EC00F000C082F001C083F02D0EAE
:100C24000001846F000E856F9ADE0EDF010E826F65
:100C3400050E836F410E6C6E650E6D6E720E6E6ED8
:100C44006F0E6F6E706A6C0E846F000E856F85DF99
:100C5400020E826F010E836FC50EF66E0D0EF76ED7
:100C6400000EF86E710EE16E000EE26E110E006E53
:100C7400010E016EE1DE710E846F000E856F6DDF73
:100C8400040E826F010E836F2D0E846F000E856F2C
:100C940064DF949482849386A0DF800E1618006E1D
:100CA400800E005C02E1320E155C30E2020E826FAF
:100CB4002DDF00C05AF001C05BF0020E046E000E7E
:100CC400056E5AC000F05BC001F0B2EC01F000C048
:100CD40082F001C083F05C0E0001846F000E856F0A
:100CE4003EDE030E826F010E836F5C0E846F000E76
:100CF400856F33DF1A0E0C6EF80E0D6E0D2EFED7B7
:100D04000C2EFCD70000154A162AC7D7949A828A5B
:100D1400020E826FFBDE00C05AF001C05BF0020ECF
:100D2400046E000E056E5AC000F05BC001F0B2EC18
:100D340001F000C082F001C083F05C0E0001846FFA
:100D4400000E856F0CDE030E826F010E836F5C0E46
:100D5400846F000E856F01DF1A0E0C6EF80E0D6E97
:100D64000D2EFED70C2EFCD7000081B619D0F0DE74
:100D74000B0E0B6E260E0C6E5D0E0D6E0D2EFED739
:100D84000C2EFCD70B2EFAD700000000040E000135
:100D9400826FFD0E836F1B0E846F000E856FDDDE88
:040DA400B7D7FFD7E7
:100DD60010EE15F0180E006E010E016EA80EF66EDE
:0E0DE6000D0EF76E000EF86E1EEC05F01200FA
:020DA800000049
:100DAA001D39710182FBCC01EC8640F653345BA5F8
:050DBA00C404794300B0
:010DBF000F24
:050DC0004165726F00A7
:100DC5007B5930755F63344E5F646D705F31747D40
:010DD500001D
:020000040030CA
:0D000100220F0EFF0181FF0FC00FE00F4026
:00000001FF
