:1000000000EF10F00000000000EF00F00000000022
:0A0010000000000000000000F3D71C
:10200000156A166A176A186A196A80EF10F078D88C
:02201000FFD7F8
:0E201200ACB202D00000FCD72AC0ADFF120015
:10202000120E1A6E200E1B6E2A0E1C6E000E1D6EF6
:10203000FF0E226EFF0E236E000E246E000E256E24
:10204000FF0E1E6EFF0E1F6E000E206E000E216E24
:10205000FF0E266EFF0E276E000E286E000E296EF4
:10206000AC8A900EAB6E948E949C9EAA03D0AECF99
:0620700000F0FBD7120096
:102076000900F5CFE6FF0006FBE10106F9E11200D3
:10210000330EAF6EAC848CDF156A166A800E16181B
:10211000006E800E100A005C02E1000E155C1FE2EA
:1021200017C0F6FF18C0F7FF19C0F8FF0900F5CF78
:102130002AF06FDF010E1726000E18221922020E58
:102140000B6E040E0C6EBA0E0D6E0D2EFED70C2EFD
:10215000FCD70B2EFAD70000154A162AD7D7120043
:020000040030CA
:0D000100220F0EFF0181FF0FC00FE00F4026
:00000001FF
