:10000000C4EF3CF00000000000EF00F00000000032
:0A0010000000000000000000F3D71C
:10798800330E556EA3DA670E556E720E566E02DA16
:0C799800005202E0B9D801D00FDBFFD78D
:107B1000576A586A596A5A6A5B6A5C6A5750400ADF
:107B20001AE159505A105B105C1001E191D959C00B
:107B30005EF05AC05FF05BC060F05CC061F0150E93
:107B4000626E000E636E46D9576A400E5926000ECB
:107B50005A225B225C22630E5D6EA4D9B3D9005217
:107B600001E1FCD791D900C058F05850520A01E108
:107B700027DA790E5D6E96D9A5D9005201E1FCD7BE
:107B800083D900C056F0780E5D6E8CD99BD9005217
:107B900001E1FCD779D900C055F0150EE16E000E59
:107BA000E26E5750E126D8B0E22A56C0E6FF572AC7
:107BB000150EE16E000EE26E5750E126D8B0E22AB3
:0A7BC00055C0E6FF572AAAD71200AD
:107D48000D0E0C6EFB0E0D6E0D2EFED70C2EFCD7F5
:067D580000000000120013
:107D9C00576AD4DF55C05DF07FD8D0DF572A5750D3
:107DAC00FF0A02E1006A08D069D80050561803E1B6
:0A7DBC00010E006E01D0EDD7120099
:107DD400F2CF64F05EC0F6FF5FC0F7FF60C0F8FF4B
:107DE400A68EA69CA684A688F29E550EA76EAA0E01
:107DF400A76EA682F28E0A0062C0E9FF63C0EAFFA2
:107E0400666A020E665C14E2656A200E655C05E231
:107E1400EECFF5FF0F00652AF8D7A68EA69CA684A0
:107E2400F29E550EA76EAA0EA76EA682662AE9D701
:0A7E3400F28EA69464C0F2FF120063
:107E5000C00E5E6E7F0E5F6E000E606E616E150E60
:107E6000626E000E636EB6DFC40E156EEF0E166EF8
:0A7E70003C0E176EF00E186E1200A3
:107E8800AECF5DF09E9AABA202D0AB98AB885DC036
:047E980000F01200E4
:0C7EA400ACB201D0FDD75DC0ADFF1200F4
:0A7EC400000E9EBA010E006E1200BF
:107ED400900EAB6E260EAC6E948E949C9EAA03D02C
:0C7EE400AECF56F0FBD755C0AFFF120028
:027FC0001200AD
:020000040030CA
:0D000100021F1EFF8381FF0FC00FE00F40A4
:00000001FF
